{"abi":[{"type":"constructor","inputs":[{"name":"nftAddress","type":"address","internalType":"address"}],"stateMutability":"nonpayable"},{"type":"function","name":"buyListing","inputs":[{"name":"listingId","type":"uint256","internalType":"uint256"}],"outputs":[],"stateMutability":"payable"},{"type":"function","name":"cancelListing","inputs":[{"name":"listingId","type":"uint256","internalType":"uint256"}],"outputs":[],"stateMutability":"nonpayable"},{"type":"function","name":"createListing","inputs":[{"name":"tokenId","type":"uint256","internalType":"uint256"},{"name":"price","type":"uint256","internalType":"uint256"}],"outputs":[{"name":"listingId","type":"uint256","internalType":"uint256"}],"stateMutability":"nonpayable"},{"type":"function","name":"listings","inputs":[{"name":"","type":"uint256","internalType":"uint256"}],"outputs":[{"name":"tokenId","type":"uint256","internalType":"uint256"},{"name":"price","type":"uint256","internalType":"uint256"},{"name":"seller","type":"address","internalType":"address"},{"name":"status","type":"uint8","internalType":"enum AgentMarketplace.ListingStatus"}],"stateMutability":"view"},{"type":"function","name":"nextListingId","inputs":[],"outputs":[{"name":"","type":"uint256","internalType":"uint256"}],"stateMutability":"view"},{"type":"function","name":"nft","inputs":[],"outputs":[{"name":"","type":"address","internalType":"contract IERC721Minimal"}],"stateMutability":"view"},{"type":"function","name":"onERC721Received","inputs":[{"name":"","type":"address","internalType":"address"},{"name":"","type":"address","internalType":"address"},{"name":"","type":"uint256","internalType":"uint256"},{"name":"","type":"bytes","internalType":"bytes"}],"outputs":[{"name":"","type":"bytes4","internalType":"bytes4"}],"stateMutability":"pure"},{"type":"event","name":"ListingCancelled","inputs":[{"name":"listingId","type":"uint256","indexed":true,"internalType":"uint256"},{"name":"seller","type":"address","indexed":true,"internalType":"address"},{"name":"tokenId","type":"uint256","indexed":true,"internalType":"uint256"}],"anonymous":false},{"type":"event","name":"ListingCreated","inputs":[{"name":"listingId","type":"uint256","indexed":true,"internalType":"uint256"},{"name":"seller","type":"address","indexed":true,"internalType":"address"},{"name":"tokenId","type":"uint256","indexed":true,"internalType":"uint256"},{"name":"price","type":"uint256","indexed":false,"internalType":"uint256"}],"anonymous":false},{"type":"event","name":"ListingPurchased","inputs":[{"name":"listingId","type":"uint256","indexed":true,"internalType":"uint256"},{"name":"buyer","type":"address","indexed":true,"internalType":"address"},{"name":"seller","type":"address","indexed":true,"internalType":"address"},{"name":"tokenId","type":"uint256","indexed":false,"internalType":"uint256"},{"name":"price","type":"uint256","indexed":false,"internalType":"uint256"}],"anonymous":false}],"bytecode":{"object":"0x60a060405260015f55348015610013575f5ffd5b5060405161175a38038061175a8339818101604052810190610035919061013b565b5f73ffffffffffffffffffffffffffffffffffffffff168173ffffffffffffffffffffffffffffffffffffffff16036100a3576040517f08c379a000000000000000000000000000000000000000000000000000000000815260040161009a906101c0565b60405180910390fd5b8073ffffffffffffffffffffffffffffffffffffffff1660808173ffffffffffffffffffffffffffffffffffffffff1681525050506101de565b5f5ffd5b5f73ffffffffffffffffffffffffffffffffffffffff82169050919050565b5f61010a826100e1565b9050919050565b61011a81610100565b8114610124575f5ffd5b50565b5f8151905061013581610111565b92915050565b5f602082840312156101505761014f6100dd565b5b5f61015d84828501610127565b91505092915050565b5f82825260208201905092915050565b7f496e76616c6964204e46540000000000000000000000000000000000000000005f82015250565b5f6101aa600b83610166565b91506101b582610176565b602082019050919050565b5f6020820190508181035f8301526101d78161019e565b9050919050565b6080516115486102125f395f818161038b015281816104c3015281816107ab015281816109ab0152610b9b01526115485ff3fe60806040526004361061006f575f3560e01c80634884f4591161004d5780634884f45914610101578063a79123a91461011d578063aaccf1ec14610159578063de74e57b146101835761006f565b8063150b7a0214610073578063305a67a8146100af57806347ccca02146100d7575b5f5ffd5b34801561007e575f5ffd5b5061009960048036038101906100949190610de5565b6101c2565b6040516100a69190610ea3565b60405180910390f35b3480156100ba575f5ffd5b506100d560048036038101906100d09190610ebc565b6101d6565b005b3480156100e2575f5ffd5b506100eb6104c1565b6040516100f89190610f42565b60405180910390f35b61011b60048036038101906101169190610ebc565b6104e5565b005b348015610128575f5ffd5b50610143600480360381019061013e9190610f5b565b6108e6565b6040516101509190610fa8565b60405180910390f35b348015610164575f5ffd5b5061016d610c92565b60405161017a9190610fa8565b60405180910390f35b34801561018e575f5ffd5b506101a960048036038101906101a49190610ebc565b610c97565b6040516101b99493929190611043565b60405180910390f35b5f63150b7a0260e01b905095945050505050565b60025f9054906101000a900460ff1615610225576040517f08c379a000000000000000000000000000000000000000000000000000000000815260040161021c906110e0565b60405180910390fd5b600160025f6101000a81548160ff0219169083151502179055505f60015f8381526020019081526020015f2090506001600381111561026757610266610fd0565b5b8160020160149054906101000a900460ff16600381111561028b5761028a610fd0565b5b146102cb576040517f08c379a00000000000000000000000000000000000000000000000000000000081526004016102c290611148565b60405180910390fd5b3373ffffffffffffffffffffffffffffffffffffffff16816002015f9054906101000a900473ffffffffffffffffffffffffffffffffffffffff1673ffffffffffffffffffffffffffffffffffffffff161461035c576040517f08c379a0000000000000000000000000000000000000000000000000000000008152600401610353906111b0565b60405180910390fd5b60038160020160146101000a81548160ff0219169083600381111561038457610383610fd0565b5b02179055507f000000000000000000000000000000000000000000000000000000000000000073ffffffffffffffffffffffffffffffffffffffff166323b872dd30836002015f9054906101000a900473ffffffffffffffffffffffffffffffffffffffff16845f01546040518463ffffffff1660e01b815260040161040c939291906111ce565b5f604051808303815f87803b158015610423575f5ffd5b505af1158015610435573d5f5f3e3d5ffd5b50505050805f0154816002015f9054906101000a900473ffffffffffffffffffffffffffffffffffffffff1673ffffffffffffffffffffffffffffffffffffffff16837fffadd0f4e7d64abb82ef3d770cd739a881c221c0b5b162238659e6567216abe260405160405180910390a4505f60025f6101000a81548160ff02191690831515021790555050565b7f000000000000000000000000000000000000000000000000000000000000000081565b60025f9054906101000a900460ff1615610534576040517f08c379a000000000000000000000000000000000000000000000000000000000815260040161052b906110e0565b60405180910390fd5b600160025f6101000a81548160ff0219169083151502179055505f60015f8381526020019081526020015f2090506001600381111561057657610575610fd0565b5b8160020160149054906101000a900460ff16600381111561059a57610599610fd0565b5b146105da576040517f08c379a00000000000000000000000000000000000000000000000000000000081526004016105d190611148565b60405180910390fd5b806002015f9054906101000a900473ffffffffffffffffffffffffffffffffffffffff1673ffffffffffffffffffffffffffffffffffffffff163373ffffffffffffffffffffffffffffffffffffffff160361066b576040517f08c379a00000000000000000000000000000000000000000000000000000000081526004016106629061124d565b60405180910390fd5b806001015434146106b1576040517f08c379a00000000000000000000000000000000000000000000000000000000081526004016106a8906112b5565b60405180910390fd5b60028160020160146101000a81548160ff021916908360038111156106d9576106d8610fd0565b5b02179055505f816002015f9054906101000a900473ffffffffffffffffffffffffffffffffffffffff1673ffffffffffffffffffffffffffffffffffffffff163460405161072690611300565b5f6040518083038185875af1925050503d805f8114610760576040519150601f19603f3d011682016040523d82523d5f602084013e610765565b606091505b50509050806107a9576040517f08c379a00000000000000000000000000000000000000000000000000000000081526004016107a09061135e565b60405180910390fd5b7f000000000000000000000000000000000000000000000000000000000000000073ffffffffffffffffffffffffffffffffffffffff166323b872dd3033855f01546040518463ffffffff1660e01b8152600401610809939291906111ce565b5f604051808303815f87803b158015610820575f5ffd5b505af1158015610832573d5f5f3e3d5ffd5b50505050816002015f9054906101000a900473ffffffffffffffffffffffffffffffffffffffff1673ffffffffffffffffffffffffffffffffffffffff163373ffffffffffffffffffffffffffffffffffffffff16847f67806fb1f9a1d5258c8ae3101868dc1bbd114cb2c1829b37dbdd88d64cf17d82855f015486600101546040516108c092919061137c565b60405180910390a450505f60025f6101000a81548160ff02191690831515021790555050565b5f60025f9054906101000a900460ff1615610936576040517f08c379a000000000000000000000000000000000000000000000000000000000815260040161092d906110e0565b60405180910390fd5b600160025f6101000a81548160ff0219169083151502179055505f8211610992576040517f08c379a0000000000000000000000000000000000000000000000000000000008152600401610989906113ed565b60405180910390fd5b3373ffffffffffffffffffffffffffffffffffffffff167f000000000000000000000000000000000000000000000000000000000000000073ffffffffffffffffffffffffffffffffffffffff16636352211e856040518263ffffffff1660e01b8152600401610a029190610fa8565b602060405180830381865afa158015610a1d573d5f5f3e3d5ffd5b505050506040513d601f19601f82011682018060405250810190610a41919061141f565b73ffffffffffffffffffffffffffffffffffffffff1614610a97576040517f08c379a0000000000000000000000000000000000000000000000000000000008152600401610a8e90611494565b60405180910390fd5b5f54905060015f5f828254610aac91906114df565b9250508190555060405180608001604052808481526020018381526020013373ffffffffffffffffffffffffffffffffffffffff16815260200160016003811115610afa57610af9610fd0565b5b81525060015f8381526020019081526020015f205f820151815f0155602082015181600101556040820151816002015f6101000a81548173ffffffffffffffffffffffffffffffffffffffff021916908373ffffffffffffffffffffffffffffffffffffffff16021790555060608201518160020160146101000a81548160ff02191690836003811115610b9157610b90610fd0565b5b02179055509050507f000000000000000000000000000000000000000000000000000000000000000073ffffffffffffffffffffffffffffffffffffffff166323b872dd3330866040518463ffffffff1660e01b8152600401610bf6939291906111ce565b5f604051808303815f87803b158015610c0d575f5ffd5b505af1158015610c1f573d5f5f3e3d5ffd5b50505050823373ffffffffffffffffffffffffffffffffffffffff16827f12dc294b81a709d694b1337a350a12a00076c19a77a25aab67a5f0c07e0f164d85604051610c6b9190610fa8565b60405180910390a45f60025f6101000a81548160ff02191690831515021790555092915050565b5f5481565b6001602052805f5260405f205f91509050805f015490806001015490806002015f9054906101000a900473ffffffffffffffffffffffffffffffffffffffff16908060020160149054906101000a900460ff16905084565b5f5ffd5b5f5ffd5b5f73ffffffffffffffffffffffffffffffffffffffff82169050919050565b5f610d2082610cf7565b9050919050565b610d3081610d16565b8114610d3a575f5ffd5b50565b5f81359050610d4b81610d27565b92915050565b5f819050919050565b610d6381610d51565b8114610d6d575f5ffd5b50565b5f81359050610d7e81610d5a565b92915050565b5f5ffd5b5f5ffd5b5f5ffd5b5f5f83601f840112610da557610da4610d84565b5b8235905067ffffffffffffffff811115610dc257610dc1610d88565b5b602083019150836001820283011115610dde57610ddd610d8c565b5b9250929050565b5f5f5f5f5f60808688031215610dfe57610dfd610cef565b5b5f610e0b88828901610d3d565b9550506020610e1c88828901610d3d565b9450506040610e2d88828901610d70565b935050606086013567ffffffffffffffff811115610e4e57610e4d610cf3565b5b610e5a88828901610d90565b92509250509295509295909350565b5f7fffffffff0000000000000000000000000000000000000000000000000000000082169050919050565b610e9d81610e69565b82525050565b5f602082019050610eb65f830184610e94565b92915050565b5f60208284031215610ed157610ed0610cef565b5b5f610ede84828501610d70565b91505092915050565b5f819050919050565b5f610f0a610f05610f0084610cf7565b610ee7565b610cf7565b9050919050565b5f610f1b82610ef0565b9050919050565b5f610f2c82610f11565b9050919050565b610f3c81610f22565b82525050565b5f602082019050610f555f830184610f33565b92915050565b5f5f60408385031215610f7157610f70610cef565b5b5f610f7e85828601610d70565b9250506020610f8f85828601610d70565b9150509250929050565b610fa281610d51565b82525050565b5f602082019050610fbb5f830184610f99565b92915050565b610fca81610d16565b82525050565b7f4e487b71000000000000000000000000000000000000000000000000000000005f52602160045260245ffd5b6004811061100e5761100d610fd0565b5b50565b5f81905061101e82610ffd565b919050565b5f61102d82611011565b9050919050565b61103d81611023565b82525050565b5f6080820190506110565f830187610f99565b6110636020830186610f99565b6110706040830185610fc1565b61107d6060830184611034565b95945050505050565b5f82825260208201905092915050565b7f5265656e7472616e742063616c6c0000000000000000000000000000000000005f82015250565b5f6110ca600e83611086565b91506110d582611096565b602082019050919050565b5f6020820190508181035f8301526110f7816110be565b9050919050565b7f4c697374696e67206e6f74206f70656e000000000000000000000000000000005f82015250565b5f611132601083611086565b915061113d826110fe565b602082019050919050565b5f6020820190508181035f83015261115f81611126565b9050919050565b7f4e6f74206c697374696e672073656c6c657200000000000000000000000000005f82015250565b5f61119a601283611086565b91506111a582611166565b602082019050919050565b5f6020820190508181035f8301526111c78161118e565b9050919050565b5f6060820190506111e15f830186610fc1565b6111ee6020830185610fc1565b6111fb6040830184610f99565b949350505050565b7f53656c6c65722063616e6e6f74206275790000000000000000000000000000005f82015250565b5f611237601183611086565b915061124282611203565b602082019050919050565b5f6020820190508181035f8301526112648161122b565b9050919050565b7f496e636f7272656374207061796d656e740000000000000000000000000000005f82015250565b5f61129f601183611086565b91506112aa8261126b565b602082019050919050565b5f6020820190508181035f8301526112cc81611293565b9050919050565b5f81905092915050565b50565b5f6112eb5f836112d3565b91506112f6826112dd565b5f82019050919050565b5f61130a826112e0565b9150819050919050565b7f53656c6c6572207061796f7574206661696c65640000000000000000000000005f82015250565b5f611348601483611086565b915061135382611314565b602082019050919050565b5f6020820190508181035f8301526113758161133c565b9050919050565b5f60408201905061138f5f830185610f99565b61139c6020830184610f99565b9392505050565b7f496e76616c6964207072696365000000000000000000000000000000000000005f82015250565b5f6113d7600d83611086565b91506113e2826113a3565b602082019050919050565b5f6020820190508181035f830152611404816113cb565b9050919050565b5f8151905061141981610d27565b92915050565b5f6020828403121561143457611433610cef565b5b5f6114418482850161140b565b91505092915050565b7f4e6f7420746f6b656e206f776e657200000000000000000000000000000000005f82015250565b5f61147e600f83611086565b91506114898261144a565b602082019050919050565b5f6020820190508181035f8301526114ab81611472565b9050919050565b7f4e487b71000000000000000000000000000000000000000000000000000000005f52601160045260245ffd5b5f6114e982610d51565b91506114f483610d51565b925082820190508082111561150c5761150b6114b2565b5b9291505056fea2646970667358221220cfedb0ee3c88aa567f656f6c41f36f6df795c5eb4aceda6bbf42f5930a3149e464736f6c634300081c0033","linkReferences":{}},"methodIdentifiers":{"buyListing(uint256)":"4884f459","cancelListing(uint256)":"305a67a8","createListing(uint256,uint256)":"a79123a9","listings(uint256)":"de74e57b","nextListingId()":"aaccf1ec","nft()":"47ccca02","onERC721Received(address,address,uint256,bytes)":"150b7a02"},"id":0}