{"abi":[{"type":"constructor","inputs":[{"name":"name_","type":"string","internalType":"string"},{"name":"symbol_","type":"string","internalType":"string"},{"name":"initialOwner","type":"address","internalType":"address"}],"stateMutability":"nonpayable"},{"type":"function","name":"approve","inputs":[{"name":"to","type":"address","internalType":"address"},{"name":"tokenId","type":"uint256","internalType":"uint256"}],"outputs":[],"stateMutability":"nonpayable"},{"type":"function","name":"balanceOf","inputs":[{"name":"account","type":"address","internalType":"address"}],"outputs":[{"name":"","type":"uint256","internalType":"uint256"}],"stateMutability":"view"},{"type":"function","name":"getApproved","inputs":[{"name":"tokenId","type":"uint256","internalType":"uint256"}],"outputs":[{"name":"","type":"address","internalType":"address"}],"stateMutability":"view"},{"type":"function","name":"isApprovedForAll","inputs":[{"name":"tokenOwner","type":"address","internalType":"address"},{"name":"operator","type":"address","internalType":"address"}],"outputs":[{"name":"","type":"bool","internalType":"bool"}],"stateMutability":"view"},{"type":"function","name":"mintTo","inputs":[{"name":"to","type":"address","internalType":"address"},{"name":"uri","type":"string","internalType":"string"}],"outputs":[{"name":"","type":"uint256","internalType":"uint256"}],"stateMutability":"nonpayable"},{"type":"function","name":"minters","inputs":[{"name":"","type":"address","internalType":"address"}],"outputs":[{"name":"","type":"bool","internalType":"bool"}],"stateMutability":"view"},{"type":"function","name":"name","inputs":[],"outputs":[{"name":"","type":"string","internalType":"string"}],"stateMutability":"view"},{"type":"function","name":"nextTokenId","inputs":[],"outputs":[{"name":"","type":"uint256","internalType":"uint256"}],"stateMutability":"view"},{"type":"function","name":"owner","inputs":[],"outputs":[{"name":"","type":"address","internalType":"address"}],"stateMutability":"view"},{"type":"function","name":"ownerOf","inputs":[{"name":"tokenId","type":"uint256","internalType":"uint256"}],"outputs":[{"name":"","type":"address","internalType":"address"}],"stateMutability":"view"},{"type":"function","name":"safeTransferFrom","inputs":[{"name":"from","type":"address","internalType":"address"},{"name":"to","type":"address","internalType":"address"},{"name":"tokenId","type":"uint256","internalType":"uint256"}],"outputs":[],"stateMutability":"nonpayable"},{"type":"function","name":"safeTransferFrom","inputs":[{"name":"from","type":"address","internalType":"address"},{"name":"to","type":"address","internalType":"address"},{"name":"tokenId","type":"uint256","internalType":"uint256"},{"name":"data","type":"bytes","internalType":"bytes"}],"outputs":[],"stateMutability":"nonpayable"},{"type":"function","name":"setApprovalForAll","inputs":[{"name":"operator","type":"address","internalType":"address"},{"name":"approved","type":"bool","internalType":"bool"}],"outputs":[],"stateMutability":"nonpayable"},{"type":"function","name":"setMinter","inputs":[{"name":"account","type":"address","internalType":"address"},{"name":"allowed","type":"bool","internalType":"bool"}],"outputs":[],"stateMutability":"nonpayable"},{"type":"function","name":"supportsInterface","inputs":[{"name":"interfaceId","type":"bytes4","internalType":"bytes4"}],"outputs":[{"name":"","type":"bool","internalType":"bool"}],"stateMutability":"pure"},{"type":"function","name":"symbol","inputs":[],"outputs":[{"name":"","type":"string","internalType":"string"}],"stateMutability":"view"},{"type":"function","name":"tokenURI","inputs":[{"name":"tokenId","type":"uint256","internalType":"uint256"}],"outputs":[{"name":"","type":"string","internalType":"string"}],"stateMutability":"view"},{"type":"function","name":"transferFrom","inputs":[{"name":"from","type":"address","internalType":"address"},{"name":"to","type":"address","internalType":"address"},{"name":"tokenId","type":"uint256","internalType":"uint256"}],"outputs":[],"stateMutability":"nonpayable"},{"type":"function","name":"transferOwnership","inputs":[{"name":"newOwner","type":"address","internalType":"address"}],"outputs":[],"stateMutability":"nonpayable"},{"type":"event","name":"Approval","inputs":[{"name":"owner","type":"address","indexed":true,"internalType":"address"},{"name":"approved","type":"address","indexed":true,"internalType":"address"},{"name":"tokenId","type":"uint256","indexed":true,"internalType":"uint256"}],"anonymous":false},{"type":"event","name":"ApprovalForAll","inputs":[{"name":"owner","type":"address","indexed":true,"internalType":"address"},{"name":"operator","type":"address","indexed":true,"internalType":"address"},{"name":"approved","type":"bool","indexed":false,"internalType":"bool"}],"anonymous":false},{"type":"event","name":"MinterUpdated","inputs":[{"name":"account","type":"address","indexed":true,"internalType":"address"},{"name":"allowed","type":"bool","indexed":false,"internalType":"bool"}],"anonymous":false},{"type":"event","name":"OwnershipTransferred","inputs":[{"name":"previousOwner","type":"address","indexed":true,"internalType":"address"},{"name":"newOwner","type":"address","indexed":true,"internalType":"address"}],"anonymous":false},{"type":"event","name":"Transfer","inputs":[{"name":"from","type":"address","indexed":true,"internalType":"address"},{"name":"to","type":"address","indexed":true,"internalType":"address"},{"name":"tokenId","type":"uint256","indexed":true,"internalType":"uint256"}],"anonymous":false}],"bytecode":{"object":"0x60806040526001600355348015610014575f5ffd5b50604051612e7b380380612e7b833981810160405281019061003691906103b0565b5f73ffffffffffffffffffffffffffffffffffffffff168173ffffffffffffffffffffffffffffffffffffffff16036100a4576040517f08c379a000000000000000000000000000000000000000000000000000000000815260040161009b90610492565b60405180910390fd5b825f90816100b291906106c0565b5081600190816100c291906106c0565b508060025f6101000a81548173ffffffffffffffffffffffffffffffffffffffff021916908373ffffffffffffffffffffffffffffffffffffffff160217905550600160045f8373ffffffffffffffffffffffffffffffffffffffff1673ffffffffffffffffffffffffffffffffffffffff1681526020019081526020015f205f6101000a81548160ff0219169083151502179055508073ffffffffffffffffffffffffffffffffffffffff165f73ffffffffffffffffffffffffffffffffffffffff167f8be0079c531659141344cd1fd0a4f28419497f9722a3daafe3b4186f6b6457e060405160405180910390a38073ffffffffffffffffffffffffffffffffffffffff167fb21afb9ce9be0a676f8f317ff0ca072fb89a4f8ce2d1b6fe80f8755c14f1cb1960016040516101f991906107a9565b60405180910390a25050506107c2565b5f604051905090565b5f5ffd5b5f5ffd5b5f5ffd5b5f5ffd5b5f601f19601f8301169050919050565b7f4e487b71000000000000000000000000000000000000000000000000000000005f52604160045260245ffd5b61026882610222565b810181811067ffffffffffffffff8211171561028757610286610232565b5b80604052505050565b5f610299610209565b90506102a5828261025f565b919050565b5f67ffffffffffffffff8211156102c4576102c3610232565b5b6102cd82610222565b9050602081019050919050565b8281835e5f83830152505050565b5f6102fa6102f5846102aa565b610290565b9050828152602081018484840111156103165761031561021e565b5b6103218482856102da565b509392505050565b5f82601f83011261033d5761033c61021a565b5b815161034d8482602086016102e8565b91505092915050565b5f73ffffffffffffffffffffffffffffffffffffffff82169050919050565b5f61037f82610356565b9050919050565b61038f81610375565b8114610399575f5ffd5b50565b5f815190506103aa81610386565b92915050565b5f5f5f606084860312156103c7576103c6610212565b5b5f84015167ffffffffffffffff8111156103e4576103e3610216565b5b6103f086828701610329565b935050602084015167ffffffffffffffff81111561041157610410610216565b5b61041d86828701610329565b925050604061042e8682870161039c565b9150509250925092565b5f82825260208201905092915050565b7f496e76616c6964206f776e6572000000000000000000000000000000000000005f82015250565b5f61047c600d83610438565b915061048782610448565b602082019050919050565b5f6020820190508181035f8301526104a981610470565b9050919050565b5f81519050919050565b7f4e487b71000000000000000000000000000000000000000000000000000000005f52602260045260245ffd5b5f60028204905060018216806104fe57607f821691505b602082108103610511576105106104ba565b5b50919050565b5f819050815f5260205f209050919050565b5f6020601f8301049050919050565b5f82821b905092915050565b5f600883026105737fffffffffffffffffffffffffffffffffffffffffffffffffffffffffffffffff82610538565b61057d8683610538565b95508019841693508086168417925050509392505050565b5f819050919050565b5f819050919050565b5f6105c16105bc6105b784610595565b61059e565b610595565b9050919050565b5f819050919050565b6105da836105a7565b6105ee6105e6826105c8565b848454610544565b825550505050565b5f5f905090565b6106056105f6565b6106108184846105d1565b505050565b5b81811015610633576106285f826105fd565b600181019050610616565b5050565b601f8211156106785761064981610517565b61065284610529565b81016020851015610661578190505b61067561066d85610529565b830182610615565b50505b505050565b5f82821c905092915050565b5f6106985f198460080261067d565b1980831691505092915050565b5f6106b08383610689565b9150826002028217905092915050565b6106c9826104b0565b67ffffffffffffffff8111156106e2576106e1610232565b5b6106ec82546104e7565b6106f7828285610637565b5f60209050601f831160018114610728575f8415610716578287015190505b61072085826106a5565b865550610787565b601f19841661073686610517565b5f5b8281101561075d57848901518255600182019150602085019450602081019050610738565b8683101561077a5784890151610776601f891682610689565b8355505b6001600288020188555050505b505050505050565b5f8115159050919050565b6107a38161078f565b82525050565b5f6020820190506107bc5f83018461079a565b92915050565b6126ac806107cf5f395ff3fe608060405234801561000f575f5ffd5b506004361061011e575f3560e01c806375794a3c116100ab578063c87b56dd1161006f578063c87b56dd14610316578063cf456ae714610346578063e985e9c514610362578063f2fde38b14610392578063f46eccc4146103ae5761011e565b806375794a3c146102845780638da5cb5b146102a257806395d89b41146102c0578063a22cb465146102de578063b88d4fde146102fa5761011e565b8063095ea7b3116100f2578063095ea7b3146101d057806323b872dd146101ec57806342842e0e146102085780636352211e1461022457806370a08231146102545761011e565b806275a3171461012257806301ffc9a71461015257806306fdde0314610182578063081812fc146101a0575b5f5ffd5b61013c60048036038101906101379190611867565b6103de565b60405161014991906118dc565b60405180910390f35b61016c6004803603810190610167919061194a565b610639565b604051610179919061198f565b60405180910390f35b61018a6106ca565b6040516101979190611a18565b60405180910390f35b6101ba60048036038101906101b59190611a62565b610759565b6040516101c79190611a9c565b60405180910390f35b6101ea60048036038101906101e59190611ab5565b6107da565b005b61020660048036038101906102019190611af3565b610914565b005b610222600480360381019061021d9190611af3565b61096d565b005b61023e60048036038101906102399190611a62565b61098c565b60405161024b9190611a9c565b60405180910390f35b61026e60048036038101906102699190611b43565b610a38565b60405161027b91906118dc565b60405180910390f35b61028c610aec565b60405161029991906118dc565b60405180910390f35b6102aa610af2565b6040516102b79190611a9c565b60405180910390f35b6102c8610b17565b6040516102d59190611a18565b60405180910390f35b6102f860048036038101906102f39190611b98565b610ba7565b005b610314600480360381019061030f9190611cfe565b610d0d565b005b610330600480360381019061032b9190611a62565b610d73565b60405161033d9190611a18565b60405180910390f35b610360600480360381019061035b9190611b98565b610e5c565b005b61037c60048036038101906103779190611d7e565b610fff565b604051610389919061198f565b60405180910390f35b6103ac60048036038101906103a79190611b43565b61108d565b005b6103c860048036038101906103c39190611b43565b61124d565b6040516103d5919061198f565b60405180910390f35b5f60045f3373ffffffffffffffffffffffffffffffffffffffff1673ffffffffffffffffffffffffffffffffffffffff1681526020019081526020015f205f9054906101000a900460ff16610468576040517f08c379a000000000000000000000000000000000000000000000000000000000815260040161045f90611e06565b60405180910390fd5b5f73ffffffffffffffffffffffffffffffffffffffff168473ffffffffffffffffffffffffffffffffffffffff16036104d6576040517f08c379a00000000000000000000000000000000000000000000000000000000081526004016104cd90611e6e565b60405180910390fd5b5f6003549050600160035f8282546104ee9190611eb9565b925050819055508460055f8381526020019081526020015f205f6101000a81548173ffffffffffffffffffffffffffffffffffffffff021916908373ffffffffffffffffffffffffffffffffffffffff160217905550600160065f8773ffffffffffffffffffffffffffffffffffffffff1673ffffffffffffffffffffffffffffffffffffffff1681526020019081526020015f205f8282546105919190611eb9565b92505081905550838360095f8481526020019081526020015f2091826105b89291906120f3565b50808573ffffffffffffffffffffffffffffffffffffffff165f73ffffffffffffffffffffffffffffffffffffffff167fddf252ad1be2c89b69c2b068fc378daa952ba7f163c4a11628f55a4df523b3ef60405160405180910390a461062e5f868360405180602001604052805f81525061126a565b809150509392505050565b5f6301ffc9a760e01b827bffffffffffffffffffffffffffffffffffffffffffffffffffffffff1916148061069357506380ac58cd60e01b827bffffffffffffffffffffffffffffffffffffffffffffffffffffffff1916145b806106c35750635b5e139f60e01b827bffffffffffffffffffffffffffffffffffffffffffffffffffffffff1916145b9050919050565b60605f80546106d890611f23565b80601f016020809104026020016040519081016040528092919081815260200182805461070490611f23565b801561074f5780601f106107265761010080835404028352916020019161074f565b820191905f5260205f20905b81548152906001019060200180831161073257829003601f168201915b5050505050905090565b5f610763826113d6565b6107a2576040517f08c379a00000000000000000000000000000000000000000000000000000000081526004016107999061220a565b60405180910390fd5b60075f8381526020019081526020015f205f9054906101000a900473ffffffffffffffffffffffffffffffffffffffff169050919050565b5f6107e48261098c565b90508073ffffffffffffffffffffffffffffffffffffffff163373ffffffffffffffffffffffffffffffffffffffff16148061082657506108258133610fff565b5b610865576040517f08c379a000000000000000000000000000000000000000000000000000000000815260040161085c90612272565b60405180910390fd5b8260075f8481526020019081526020015f205f6101000a81548173ffffffffffffffffffffffffffffffffffffffff021916908373ffffffffffffffffffffffffffffffffffffffff160217905550818373ffffffffffffffffffffffffffffffffffffffff168273ffffffffffffffffffffffffffffffffffffffff167f8c5be1e5ebec7d5bd14f71427d1e84f3dd0314c0f7b2291e5b200ac8c7c3b92560405160405180910390a4505050565b61091e338261143e565b61095d576040517f08c379a0000000000000000000000000000000000000000000000000000000008152600401610954906122da565b60405180910390fd5b6109688383836114d2565b505050565b61098783838360405180602001604052805f815250610d0d565b505050565b5f5f60055f8481526020019081526020015f205f9054906101000a900473ffffffffffffffffffffffffffffffffffffffff1690505f73ffffffffffffffffffffffffffffffffffffffff168173ffffffffffffffffffffffffffffffffffffffff1603610a2f576040517f08c379a0000000000000000000000000000000000000000000000000000000008152600401610a269061220a565b60405180910390fd5b80915050919050565b5f5f73ffffffffffffffffffffffffffffffffffffffff168273ffffffffffffffffffffffffffffffffffffffff1603610aa7576040517f08c379a0000000000000000000000000000000000000000000000000000000008152600401610a9e90612342565b60405180910390fd5b60065f8373ffffffffffffffffffffffffffffffffffffffff1673ffffffffffffffffffffffffffffffffffffffff1681526020019081526020015f20549050919050565b60035481565b60025f9054906101000a900473ffffffffffffffffffffffffffffffffffffffff1681565b606060018054610b2690611f23565b80601f0160208091040260200160405190810160405280929190818152602001828054610b5290611f23565b8015610b9d5780601f10610b7457610100808354040283529160200191610b9d565b820191905f5260205f20905b815481529060010190602001808311610b8057829003601f168201915b5050505050905090565b3373ffffffffffffffffffffffffffffffffffffffff168273ffffffffffffffffffffffffffffffffffffffff1603610c15576040517f08c379a0000000000000000000000000000000000000000000000000000000008152600401610c0c906123aa565b60405180910390fd5b8060085f3373ffffffffffffffffffffffffffffffffffffffff1673ffffffffffffffffffffffffffffffffffffffff1681526020019081526020015f205f8473ffffffffffffffffffffffffffffffffffffffff1673ffffffffffffffffffffffffffffffffffffffff1681526020019081526020015f205f6101000a81548160ff0219169083151502179055508173ffffffffffffffffffffffffffffffffffffffff163373ffffffffffffffffffffffffffffffffffffffff167f17307eab39ab6107e8899845ad3d59bd9653f200f220920489ca2b5937696c3183604051610d01919061198f565b60405180910390a35050565b610d17338361143e565b610d56576040517f08c379a0000000000000000000000000000000000000000000000000000000008152600401610d4d906122da565b60405180910390fd5b610d618484846114d2565b610d6d8484848461126a565b50505050565b6060610d7e826113d6565b610dbd576040517f08c379a0000000000000000000000000000000000000000000000000000000008152600401610db49061220a565b60405180910390fd5b60095f8381526020019081526020015f208054610dd990611f23565b80601f0160208091040260200160405190810160405280929190818152602001828054610e0590611f23565b8015610e505780601f10610e2757610100808354040283529160200191610e50565b820191905f5260205f20905b815481529060010190602001808311610e3357829003601f168201915b50505050509050919050565b60025f9054906101000a900473ffffffffffffffffffffffffffffffffffffffff1673ffffffffffffffffffffffffffffffffffffffff163373ffffffffffffffffffffffffffffffffffffffff1614610eeb576040517f08c379a0000000000000000000000000000000000000000000000000000000008152600401610ee290612412565b60405180910390fd5b5f73ffffffffffffffffffffffffffffffffffffffff168273ffffffffffffffffffffffffffffffffffffffff1603610f59576040517f08c379a0000000000000000000000000000000000000000000000000000000008152600401610f509061247a565b60405180910390fd5b8060045f8473ffffffffffffffffffffffffffffffffffffffff1673ffffffffffffffffffffffffffffffffffffffff1681526020019081526020015f205f6101000a81548160ff0219169083151502179055508173ffffffffffffffffffffffffffffffffffffffff167fb21afb9ce9be0a676f8f317ff0ca072fb89a4f8ce2d1b6fe80f8755c14f1cb1982604051610ff3919061198f565b60405180910390a25050565b5f60085f8473ffffffffffffffffffffffffffffffffffffffff1673ffffffffffffffffffffffffffffffffffffffff1681526020019081526020015f205f8373ffffffffffffffffffffffffffffffffffffffff1673ffffffffffffffffffffffffffffffffffffffff1681526020019081526020015f205f9054906101000a900460ff16905092915050565b60025f9054906101000a900473ffffffffffffffffffffffffffffffffffffffff1673ffffffffffffffffffffffffffffffffffffffff163373ffffffffffffffffffffffffffffffffffffffff161461111c576040517f08c379a000000000000000000000000000000000000000000000000000000000815260040161111390612412565b60405180910390fd5b5f73ffffffffffffffffffffffffffffffffffffffff168173ffffffffffffffffffffffffffffffffffffffff160361118a576040517f08c379a000000000000000000000000000000000000000000000000000000000815260040161118190612342565b60405180910390fd5b5f60025f9054906101000a900473ffffffffffffffffffffffffffffffffffffffff1690508160025f6101000a81548173ffffffffffffffffffffffffffffffffffffffff021916908373ffffffffffffffffffffffffffffffffffffffff1602179055508173ffffffffffffffffffffffffffffffffffffffff168173ffffffffffffffffffffffffffffffffffffffff167f8be0079c531659141344cd1fd0a4f28419497f9722a3daafe3b4186f6b6457e060405160405180910390a35050565b6004602052805f5260405f205f915054906101000a900460ff1681565b5f8373ffffffffffffffffffffffffffffffffffffffff163b03156113d0575f63150b7a0260e01b90508373ffffffffffffffffffffffffffffffffffffffff1663150b7a02338786866040518563ffffffff1660e01b81526004016112d394939291906124ea565b6020604051808303815f875af192505050801561130e57506040513d601f19601f8201168201806040525081019061130b9190612548565b60015b61134d576040517f08c379a0000000000000000000000000000000000000000000000000000000008152600401611344906125bd565b60405180910390fd5b817bffffffffffffffffffffffffffffffffffffffffffffffffffffffff1916817bffffffffffffffffffffffffffffffffffffffffffffffffffffffff1916146113cd576040517f08c379a00000000000000000000000000000000000000000000000000000000081526004016113c4906125bd565b60405180910390fd5b50505b50505050565b5f5f73ffffffffffffffffffffffffffffffffffffffff1660055f8481526020019081526020015f205f9054906101000a900473ffffffffffffffffffffffffffffffffffffffff1673ffffffffffffffffffffffffffffffffffffffff1614159050919050565b5f5f6114498361098c565b90508073ffffffffffffffffffffffffffffffffffffffff168473ffffffffffffffffffffffffffffffffffffffff1614806114b857508373ffffffffffffffffffffffffffffffffffffffff166114a084610759565b73ffffffffffffffffffffffffffffffffffffffff16145b806114c957506114c88185610fff565b5b91505092915050565b5f73ffffffffffffffffffffffffffffffffffffffff168273ffffffffffffffffffffffffffffffffffffffff1603611540576040517f08c379a000000000000000000000000000000000000000000000000000000000815260040161153790611e6e565b60405180910390fd5b8273ffffffffffffffffffffffffffffffffffffffff166115608261098c565b73ffffffffffffffffffffffffffffffffffffffff16146115b6576040517f08c379a00000000000000000000000000000000000000000000000000000000081526004016115ad90612625565b60405180910390fd5b60075f8281526020019081526020015f205f6101000a81549073ffffffffffffffffffffffffffffffffffffffff0219169055600160065f8573ffffffffffffffffffffffffffffffffffffffff1673ffffffffffffffffffffffffffffffffffffffff1681526020019081526020015f205f8282546116369190612643565b92505081905550600160065f8473ffffffffffffffffffffffffffffffffffffffff1673ffffffffffffffffffffffffffffffffffffffff1681526020019081526020015f205f82825461168a9190611eb9565b925050819055508160055f8381526020019081526020015f205f6101000a81548173ffffffffffffffffffffffffffffffffffffffff021916908373ffffffffffffffffffffffffffffffffffffffff160217905550805f73ffffffffffffffffffffffffffffffffffffffff168473ffffffffffffffffffffffffffffffffffffffff167f8c5be1e5ebec7d5bd14f71427d1e84f3dd0314c0f7b2291e5b200ac8c7c3b92560405160405180910390a4808273ffffffffffffffffffffffffffffffffffffffff168473ffffffffffffffffffffffffffffffffffffffff167fddf252ad1be2c89b69c2b068fc378daa952ba7f163c4a11628f55a4df523b3ef60405160405180910390a4505050565b5f604051905090565b5f5ffd5b5f5ffd5b5f73ffffffffffffffffffffffffffffffffffffffff82169050919050565b5f6117d5826117ac565b9050919050565b6117e5816117cb565b81146117ef575f5ffd5b50565b5f81359050611800816117dc565b92915050565b5f5ffd5b5f5ffd5b5f5ffd5b5f5f83601f84011261182757611826611806565b5b8235905067ffffffffffffffff8111156118445761184361180a565b5b6020830191508360018202830111156118605761185f61180e565b5b9250929050565b5f5f5f6040848603121561187e5761187d6117a4565b5b5f61188b868287016117f2565b935050602084013567ffffffffffffffff8111156118ac576118ab6117a8565b5b6118b886828701611812565b92509250509250925092565b5f819050919050565b6118d6816118c4565b82525050565b5f6020820190506118ef5f8301846118cd565b92915050565b5f7fffffffff0000000000000000000000000000000000000000000000000000000082169050919050565b611929816118f5565b8114611933575f5ffd5b50565b5f8135905061194481611920565b92915050565b5f6020828403121561195f5761195e6117a4565b5b5f61196c84828501611936565b91505092915050565b5f8115159050919050565b61198981611975565b82525050565b5f6020820190506119a25f830184611980565b92915050565b5f81519050919050565b5f82825260208201905092915050565b8281835e5f83830152505050565b5f601f19601f8301169050919050565b5f6119ea826119a8565b6119f481856119b2565b9350611a048185602086016119c2565b611a0d816119d0565b840191505092915050565b5f6020820190508181035f830152611a3081846119e0565b905092915050565b611a41816118c4565b8114611a4b575f5ffd5b50565b5f81359050611a5c81611a38565b92915050565b5f60208284031215611a7757611a766117a4565b5b5f611a8484828501611a4e565b91505092915050565b611a96816117cb565b82525050565b5f602082019050611aaf5f830184611a8d565b92915050565b5f5f60408385031215611acb57611aca6117a4565b5b5f611ad8858286016117f2565b9250506020611ae985828601611a4e565b9150509250929050565b5f5f5f60608486031215611b0a57611b096117a4565b5b5f611b17868287016117f2565b9350506020611b28868287016117f2565b9250506040611b3986828701611a4e565b9150509250925092565b5f60208284031215611b5857611b576117a4565b5b5f611b65848285016117f2565b91505092915050565b611b7781611975565b8114611b81575f5ffd5b50565b5f81359050611b9281611b6e565b92915050565b5f5f60408385031215611bae57611bad6117a4565b5b5f611bbb858286016117f2565b9250506020611bcc85828601611b84565b9150509250929050565b5f5ffd5b7f4e487b71000000000000000000000000000000000000000000000000000000005f52604160045260245ffd5b611c10826119d0565b810181811067ffffffffffffffff82111715611c2f57611c2e611bda565b5b80604052505050565b5f611c4161179b565b9050611c4d8282611c07565b919050565b5f67ffffffffffffffff821115611c6c57611c6b611bda565b5b611c75826119d0565b9050602081019050919050565b828183375f83830152505050565b5f611ca2611c9d84611c52565b611c38565b905082815260208101848484011115611cbe57611cbd611bd6565b5b611cc9848285611c82565b509392505050565b5f82601f830112611ce557611ce4611806565b5b8135611cf5848260208601611c90565b91505092915050565b5f5f5f5f60808587031215611d1657611d156117a4565b5b5f611d23878288016117f2565b9450506020611d34878288016117f2565b9350506040611d4587828801611a4e565b925050606085013567ffffffffffffffff811115611d6657611d656117a8565b5b611d7287828801611cd1565b91505092959194509250565b5f5f60408385031215611d9457611d936117a4565b5b5f611da1858286016117f2565b9250506020611db2858286016117f2565b9150509250929050565b7f4e6f7420617574686f72697a6564206d696e74657200000000000000000000005f82015250565b5f611df06015836119b2565b9150611dfb82611dbc565b602082019050919050565b5f6020820190508181035f830152611e1d81611de4565b9050919050565b7f496e76616c696420726563697069656e740000000000000000000000000000005f82015250565b5f611e586011836119b2565b9150611e6382611e24565b602082019050919050565b5f6020820190508181035f830152611e8581611e4c565b9050919050565b7f4e487b71000000000000000000000000000000000000000000000000000000005f52601160045260245ffd5b5f611ec3826118c4565b9150611ece836118c4565b9250828201905080821115611ee657611ee5611e8c565b5b92915050565b5f82905092915050565b7f4e487b71000000000000000000000000000000000000000000000000000000005f52602260045260245ffd5b5f6002820490506001821680611f3a57607f821691505b602082108103611f4d57611f4c611ef6565b5b50919050565b5f819050815f5260205f209050919050565b5f6020601f8301049050919050565b5f82821b905092915050565b5f60088302611faf7fffffffffffffffffffffffffffffffffffffffffffffffffffffffffffffffff82611f74565b611fb98683611f74565b95508019841693508086168417925050509392505050565b5f819050919050565b5f611ff4611fef611fea846118c4565b611fd1565b6118c4565b9050919050565b5f819050919050565b61200d83611fda565b61202161201982611ffb565b848454611f80565b825550505050565b5f5f905090565b612038612029565b612043818484612004565b505050565b5b818110156120665761205b5f82612030565b600181019050612049565b5050565b601f8211156120ab5761207c81611f53565b61208584611f65565b81016020851015612094578190505b6120a86120a085611f65565b830182612048565b50505b505050565b5f82821c905092915050565b5f6120cb5f19846008026120b0565b1980831691505092915050565b5f6120e383836120bc565b9150826002028217905092915050565b6120fd8383611eec565b67ffffffffffffffff81111561211657612115611bda565b5b6121208254611f23565b61212b82828561206a565b5f601f831160018114612158575f8415612146578287013590505b61215085826120d8565b8655506121b7565b601f19841661216686611f53565b5f5b8281101561218d57848901358255600182019150602085019450602081019050612168565b868310156121aa57848901356121a6601f8916826120bc565b8355505b6001600288020188555050505b50505050505050565b7f546f6b656e20646f6573206e6f742065786973740000000000000000000000005f82015250565b5f6121f46014836119b2565b91506121ff826121c0565b602082019050919050565b5f6020820190508181035f830152612221816121e8565b9050919050565b7f4e6f7420746f6b656e206f776e6572206f72206f70657261746f7200000000005f82015250565b5f61225c601b836119b2565b915061226782612228565b602082019050919050565b5f6020820190508181035f83015261228981612250565b9050919050565b7f4e6f7420617070726f76656400000000000000000000000000000000000000005f82015250565b5f6122c4600c836119b2565b91506122cf82612290565b602082019050919050565b5f6020820190508181035f8301526122f1816122b8565b9050919050565b7f496e76616c6964206f776e6572000000000000000000000000000000000000005f82015250565b5f61232c600d836119b2565b9150612337826122f8565b602082019050919050565b5f6020820190508181035f83015261235981612320565b9050919050565b7f43616e6e6f742073656c6620617070726f7665000000000000000000000000005f82015250565b5f6123946013836119b2565b915061239f82612360565b602082019050919050565b5f6020820190508181035f8301526123c181612388565b9050919050565b7f4e6f7420636f6e7472616374206f776e657200000000000000000000000000005f82015250565b5f6123fc6012836119b2565b9150612407826123c8565b602082019050919050565b5f6020820190508181035f830152612429816123f0565b9050919050565b7f496e76616c6964206d696e7465720000000000000000000000000000000000005f82015250565b5f612464600e836119b2565b915061246f82612430565b602082019050919050565b5f6020820190508181035f83015261249181612458565b9050919050565b5f81519050919050565b5f82825260208201905092915050565b5f6124bc82612498565b6124c681856124a2565b93506124d68185602086016119c2565b6124df816119d0565b840191505092915050565b5f6080820190506124fd5f830187611a8d565b61250a6020830186611a8d565b61251760408301856118cd565b818103606083015261252981846124b2565b905095945050505050565b5f8151905061254281611920565b92915050565b5f6020828403121561255d5761255c6117a4565b5b5f61256a84828501612534565b91505092915050565b7f556e7361666520726563656976657200000000000000000000000000000000005f82015250565b5f6125a7600f836119b2565b91506125b282612573565b602082019050919050565b5f6020820190508181035f8301526125d48161259b565b9050919050565b7f496e76616c696420746f6b656e206f776e6572000000000000000000000000005f82015250565b5f61260f6013836119b2565b915061261a826125db565b602082019050919050565b5f6020820190508181035f83015261263c81612603565b9050919050565b5f61264d826118c4565b9150612658836118c4565b92508282039050818111156126705761266f611e8c565b5b9291505056fea2646970667358221220c6e778b736b19d7b885cd9633bcbd41ff75d7e3f45f5413b0b091806d738863564736f6c634300081c0033","linkReferences":{}},"methodIdentifiers":{"approve(address,uint256)":"095ea7b3","balanceOf(address)":"70a08231","getApproved(uint256)":"081812fc","isApprovedForAll(address,address)":"e985e9c5","mintTo(address,string)":"0075a317","minters(address)":"f46eccc4","name()":"06fdde03","nextTokenId()":"75794a3c","owner()":"8da5cb5b","ownerOf(uint256)":"6352211e","safeTransferFrom(address,address,uint256)":"42842e0e","safeTransferFrom(address,address,uint256,bytes)":"b88d4fde","setApprovalForAll(address,bool)":"a22cb465","setMinter(address,bool)":"cf456ae7","supportsInterface(bytes4)":"01ffc9a7","symbol()":"95d89b41","tokenURI(uint256)":"c87b56dd","transferFrom(address,address,uint256)":"23b872dd","transferOwnership(address)":"f2fde38b"},"id":0}